:020000020000FC
:1000000019C04DC14CC14BC14AC149C148C151C1C0
:1000100046C145C144C143C142C141C140C13FC1C4
:100020003EC13DC13CC13BC13AC139C138C137C1F4
:1000300036C135C1F89402E00EBF0FEF0DBFA89591
:1000400000270093600000E20093B60002E00093F6
:1000500070000FE70093B3000091B60003FDFCCFE2
:1000600001E00093B1000091B60000FDFCCF02E07A
:100070000093B0000091B60001FDFCCF0BEA0093A5
:10008000640007E003BF07E007B909E708B90BE21E
:1000900004B907ED05B90CE00AB907EF0BB900E5A3
:1000A0000CBD01E00DBD0DB50EB500E005BF00E0D3
:1000B0000FBB33278827AA2400271127222733279D
:1000C00044275527662788279927AA27BB27CC27A7
:1000D000DD27EE27FF270FE3802EC02ED02EE02E47
:1000E00000E00EBB0ABD7FE100E0F1E0E0E001933B
:1000F000019308E3019306E1019305E2019307E010
:10010000019304E1019300E2019302E00083F1E036
:10011000E4E100E2008315E0212E312E1FEF512E85
:1001200010E0412E11E0612E712E789457D3299A58
:100130000000F1D34198000092D2889500E000932E
:10014000B4000091B60002FDFCCF222311F44298C6
:100150000000303049F4F39B12C003E0202E0CE184
:10016000302EFCD0D8D10BC0313049F4F29B07C0FF
:1001700003E0202E0CE1302EF1D0CDD100C00D2DAA
:10018000006C0F3F19F0429A000025E0303081F4F6
:10019000D3FC05C0419A00006DD202E3902ED5FC3D
:1001A00006C03395B8D366D27F61419A0000C5CFAF
:1001B000313009F065C0D5FC06C03327ACD34FD22F
:1001C0007F6141980000D4FC06C07F61882311F054
:1001D0008A9501C086E0D1FC05C07F618395873098
:1001E00009F48827D0FE03C0D2FE01C048C07F6159
:1001F000FDE0E8EE4DD005911491F12FE02FF89439
:10020000D0FC02C06ED102C009E951D100810F9328
:10021000823091F08330C9F0863081F10F91FF93E5
:10022000EF93FDE0E6EF34D01491EF91FF910117C9
:1002300028F10027008322C0002700833197008324
:100240002FD0F1E0E5E1008319C0FF93EF93F1E0D7
:10025000E5E0008104FD0650FDE0E8E5E00F002741
:10026000F01F1491EF91FF910F91003021F00117D1
:1002700028F001E002C0012F0A95008378945DCF39
:10028000D5FC05C0332747D3EAD14198000055CFAC
:100290008F93880FE80F8827F81F8F91089518957E
:1002A0000F930093B2000091B60004FDFCCF0F91B4
:1002B00008950F930FB70F93FF93EF930EB303704F
:1002C0000EBB1DD0F1E0E4E10081A394A01671F40F
:1002D000F29A8ED0AA24303041F4992039F09A94C1
:1002E00029F441980000BBD101C00000222309F08D
:1002F0002A95EF91FF910F910FBF0F9118950F93D2
:10030000F19B0CC009B100770695802A076C80220A
:100310005A9A00005B980000F1980EC009B100776E
:100320000695069506950695802A086F80225B9AA9
:1003300000005A980000F19A0FE38022801611F411
:1003400000E8802A082D0C25006CDC2CE82CD0223B
:10035000E022D094E094C82C0F910895FF93EF937E
:100360000F931F9302E0602E03E0702E1FEF71FFCA
:1003700011C07D7FF1E0E3E000814F925F92313068
:1003800019F4803009F466D180D15F904F900AE370
:10039000CCD102C000E2200E70FF11C07E7F00E1D0
:1003A000200EF1E0E2E000814F925F92313019F4CB
:1003B000813009F44FD169D15F904F9002C000E3C2
:1003C000200E01E0602E702E0EE0300EF1E0E1E034
:1003D00000814F925F92313019F4823009F43AD1A2
:1003E00054D15F904F901F910F91EF91FF9108951D
:1003F000FF93EF930F93F1E0E0E073D000810830BA
:1004000009F051C00027F39A01936BD000810036A8
:1004100009F049C00027F49A7160019362D000810D
:10042000003609F040C00027F59A7260019359D058
:1004300000810432C1F50027F69A74600193FF939E
:10044000EF93F1E0E8E000810395073009F400271D
:100450000083EF91FF9145D000811F93FF93EF93AD
:100460000F93F1E0E5E0008104FD06500A95FDE000
:10047000E8E5E00F00E0F01F14910F91EF91FF917C
:1004800001171F9181F401E0F79A7860019329D058
:100490000081033141F4706101E0019322D0F09BAF
:1004A00002C031961ED00F91EF91FF9108951F93D6
:1004B0000F93F0981081100F2DF01F931F701A30BA
:1004C0001F9110F006E0100F1F93107F103A1F913C
:1004D00020F000E6100F08F4F09A10830F911F919E
:1004E00008950F9301E0E3DF0F9108950F930EBD80
:1004F0000DB507FFFDCF0F9108950F9308E10A9501
:10050000F1F70F91089520E12030F1F7089522E0EE
:100510002030F1F70895FF93EF930F931F931FEF90
:1005200001E0602E702E05E0302EF1E0E4E072FF75
:100530004DC07B7F202E00814F925F92313019F4A5
:10054000833009F487D0A1D05F904F904F925F9293
:10055000313019F4843009F47DD03DD05F904F9054
:1005600005E0302EF1E0E4E073FF30C0777F0DE16D
:10057000202E3196019104FD0650000F000FFF93CD
:10058000EF93FDE0E4E6E00F00E0F01F4F925F9292
:10059000313019F4853009F45DD08DD05F904F90E3
:1005A000EF91FF9174FF12C07F7E0DE3202E3196F4
:1005B00000814F925F92313019F4863009F44AD0AD
:1005C00064D03197008161D05F904F901F910F915F
:1005D000EF91FF9108951F93F1E0E8E0008111276A
:1005E000FDE0E0EEE00FF11F1491212E1CE3312E0F
:1005F000FDE0E2ED000FE00F0027F01F05911491E0
:10060000E02FF12F58D01F9108950F931F933F9221
:100610004F935F93402F512F29980000C7D02898FF
:1006200000000CE263DF289A0000052D4F935EDF87
:100630004A95E9F74F9133945A9581F7299A00002A
:100640005F914F913F900F911F91089503D0DDDF8F
:1006500001D008954F925F924F905F9008950F934D
:10066000299800002898000009E340DF299A00003B
:100670000F9108950F93299800002898000008E32F
:1006800035DF299A00000F9108950F934F93462D5F
:10069000440F440F440F0F93069506950695069553
:1006A000005D43D0240E0F910F70005D3ED0240EEC
:1006B0004F910F9108950F93FF93EF934F93462D12
:1006C000440F440F440F0591002331F0003808F027
:1006D00000542BD0240EF7CF4F91EF91FF910F9143
:1006E00008950F934F93462D440F440F440F0F93DB
:1006F00002950F700A3018F0095C17D002C0005D37
:1007000014D0240E0F910F700A3018F0095C0DD030
:1007100002C0005D0AD0240E4F910F9108950F93EF
:10072000E0DF012FDEDF0F9108950F931F93FF93FA
:10073000EF932F923F924F935F93F9E0E8E50052D9
:100740001127001F111F001F111F001F111FE00F95
:10075000F11F48E02998000015917F9227D0289832
:1007600000000CE2C3DE289A000058E01F9317FF38
:1007700002C0052D01C0042D6F92B8DE6A94E9F71E
:100780006F90110F5A9599F71F9133947A9431F71E
:100790007F904A9509F7299A00005F914F913F9009
:1007A0002F90EF91FF911F910F9108950F9328982B
:1007B00000000AE29BDE289A0000022D97DE04E684
:1007C00095DE289800000BE291DE289A0000032DA8
:1007D00003958CDE00E58ADE0F910895FEE0E4E0EB
:1007E0004098000090DE409A000005E08CDE0A95FB
:1007F000E9F7299A000081DE299800002898000076
:1008000001E074DE05E083DE0A95E9F706EC6EDEB2
:100810007EDE7DDE7CDE7BDE09EB68DE289A000072
:1008200000E064DE2898000006EB60DE289A0000F5
:1008300017E005915BDE1A95E1F72898000003EBBD
:1008400055DE289A00001FE0059150DE1A95E1F769
:100850002898000005EB4ADE289A000001E046DEF9
:100860002898000007EB42DE289A000000E01FE015
:100870003DDE1A95E9F7289800000DEB37DE289A3F
:10088000000000E033DE2898000006E32FDE289AFF
:10089000000008E42BDE289800000DE227DE289AED
:1008A000000014E1059122DE1A95E1F72898000076
:1008B0000AEB1CDE289A00000FE218DE03E016DEC9
:1008C0002898000005E212DE289A000001E60EDEFC
:1008D000289800000EEB0ADE289A000008E506DEE4
:1008E000289800000AE302DE289A000002E0FEDDFC
:1008F0002898000001E2FADD03E0F8DD08DE07DEFB
:1009000006DE05DE01E1F2DD02DE01DE09E2EEDDFA
:10091000299A000008950F931F932F923F922998D0
:1009200000000027202E302E41DF289800000CE226
:10093000DDDD289A0000042D10E51F9315E6D6DDB5
:100940001A95E9F71F911A95C1F7299A00003F906F
:100950002F901F910F9108950000000000000000EB
:10096000183C3C18180018006666240000000000BF
:100970006C6CFE6CFE6C6C00183E603C067C1800D3
:1009800000C6CC183066C600386C3876DCCC7600F1
:1009900018183000000000000C18303030180C001F
:1009A00030180C0C0C18300000663CFF3C66000050
:1009B0000018187E181800000000000000181830F9
:1009C0000000007E00000000000000000018180079
:1009D000060C183060C08000386CC6D6C66C380073
:1009E0001838181818187E007CC6061C3066FE00E1
:1009F0007CC6063C06C67C001C3C6CCCFE0C1E0073
:100A0000FEC0C0FC06C67C003860C0FCC6C67C00C8
:100A1000FEC60C18303030007CC6C67CC6C67C00D2
:100A20007CC6C67E060C7800001818000018180056
:100A30000018180000181830060C1830180C0600A2
:100A400000007E00007E00006030180C183060004E
:100A50007CC60C18180018007CC6DEDEDEC07800EC
:100A6000386CC6FEC6C6C600FC66667C6666FC00C0
:100A70003C66C0C0C0663C00F86C6666666CF800F8
:100A8000FE6268786862FE00FE6268786860F00066
:100A90003C66C0C0CE663A00C6C6C6FEC6C6C60024
:100AA0003C18181818183C001E0C0C0CCCCC780004
:100AB000E6666C786C66E600F06060606266FE0078
:100AC000C6EEFEFED6C6C600C6E6F6DECEC6C6003A
:100AD0007CC6C6C6C6C67C00FC66667C6060F0004C
:100AE0007CC6C6C6C6CE7C0EFC66667C6C66E6001E
:100AF0003C6630180C663C007E7E5A1818183C0084
:100B0000C6C6C6C6C6C67C00C6C6C6C6C66C380043
:100B1000C6C6C6D6D6FE6C00C6C66C386CC6C60045
:100B20006666663C18183C00FEC68C183266FE00ED
:100B30003C30303030303C00C06030180C060200D1
:100B40003C0C0C0C0C0C3C0010386CC60000000077
:100B500000000000000000FF30180C000000000042
:100B60000000780C7CCC7600E0607C666666DC0079
:100B700000007CC6C0C67C001C0C7CCCCCCC7600B3
:100B800000007CC6FEC07C003C6660F86060F0003F
:100B9000000076CCCC7C0CF8E0606C766666E600F3
:100BA0001800381818183C00060006060666663C51
:100BB000E060666C786CE6003818181818183C006D
:100BC0000000ECFED6D6D6000000DC666666660045
:100BD00000007CC6C6C67C000000DC66667C60F057
:100BE000000076CCCC7C0C1E0000DC766060F0004F
:100BF00000007EC07C06FC003030FC3030361C002B
:100C00000000CCCCCCCC76000000C6C6C66C380048
:100C10000000C6D6D6FE6C000000C66C386CC6005C
:100C20000000C6C6C67E06FC00007E4C18327E0060
:100C30000E18187018180E00181818181818180020
:100C40007018180E1818700076DC00000000000004
:100C50000010386CC6C6FE000E1E36667E66660044
:100C60007C60607C66667C007C66667C66667C0078
:100C70007E606060606060001C3C6C6C6C6CFEC6EA
:100C80007E60607C60607E00DBDB7E3C7EDBDB00C8
:100C90003C66061C06663C0066666E7E76666600EE
:100CA0003C666E7E76666600666C7870786C660070
:100CB0000E1E366666666600C6EEFEFED6D6C60018
:100CC0006666667E666666003C66666666663C00CC
:100CD0007E666666666666007C6666667C60600048
:100CE0003C66606060663C007E1818181818180092
:100CF0006666663E06663C007EDBDBDB7E1818001F
:100D000066663C183C6666006666666666667F03D5
:100D10006666663E06060600DBDBDBDBDBDBFF0030
:100D2000DBDBDBDBDBDBFF03E060607C66667C003B
:100D3000C6C6C6F6DEDEF6006060607C66667C00D5
:100D4000788C063E068C7800CEDBDBFBDBDBCE004E
:100D50003E6666663E3666003229323132313232C4
:100D600031323132DFCDC200D4C5C200CCC0D00098
:100D7000C0CFD000CCC0C900C8DECD00C8DECB00DB
:100D8000C0C2C300D1C5CD00CECAD200CDCEDF00D7
:100D9000C4C5CA00CFCECDC5C4C5CBDCCDC8CA0042
:100DA000C2D2CED0CDC8CA00D1D0C5C4C000D7C52C
:100DB000D2C2C5D0C300CFDFD2CDC8D6C000D1D3F8
:100DC000C1C1CED2C000C2CED1CAD0C5D1C5CDC856
:100DD000C500940DA00DA80DAE0DB60DBE0DC60D2F
:100DE00006161E1616160600030102010101040173
:100DF00008010501060124006000600000000700F2
:100E00001200999980048A54455243020A151F28FA
:100E100030373F474C546575808500030507090B43
:0E0E20000D0F00030507090B0D0F00050B0F4A
:00000001FF
