:020000020000FC
:1000000019C0DAC1D9C1D8C1D7C1D6C1D5C1DEC1E5
:10001000D3C1D2C1D1C1D0C1CFC1CEC1CDC1CCC15C
:10002000CBC1CAC1C9C1C8C1C7C1C6C1C5C1C4C18C
:10003000C3C1C2C1F89402E00EBF0FEF0DBFA89577
:1000400000270093600000E20093B60002E00093F6
:1000500070000FE70093B3000091B60003FDFCCFE2
:1000600001E00093B1000091B60000FDFCCF02E07A
:100070000093B0000091B60001FDFCCF0AEA0093A6
:10008000640000E000937B000EE600937C0001E832
:1000900000937A0000E000937E0007E003BF07E0D2
:1000A00007B909E708B90BE204B907ED05B90CE097
:1000B0000AB907EF0BB900E50CBD01E00DBD0DB5A8
:1000C0000EB500E005BF00E00FBB33278827AA2448
:1000D00000271127222733274427552766278827FB
:1000E0009927AA27BB27CC27DD27EE27FF270FE379
:1000F000802EC02ED02EE02E00E00EBB7FE100E06F
:10010000F1E0E0E00193019308E3019306E101933C
:1001100005E2019307E0019304E1019300E20193FA
:1001200002E00083F1E0E9E000E00193008315E0E4
:10013000212E312E1FEF512E10E0412E11E0612EA5
:10014000712E789486D420D54198000089D3889563
:1001500000E00093B4000091B60002FDFCCF6623DE
:10016000E9F0222329F460E090E04298000016C0F4
:100170009923F1F7FFE0E4E26F936A95E60F00E060
:10018000F01F94916F9160FF03C0429A000002C07B
:10019000429800006395663009F461E076FF1EC066
:1001A000F39B1CC0F1E0E9E00191003019F40081FB
:1001B000003069F0319709E996D20081003628F0C5
:1001C00009E5019309E98FD20081706207C000E060
:1001D00000837F7B706261E090E02FEF303071F43C
:1001E000F39B15C003E0202E04E1302EB4D1BFD222
:1001F00090D103E0202E04E1302E09C0313019F4F3
:10020000F29B05C0EFCF75FF02C07F7D62D10D2D3F
:10021000006C0F3F19F061E090E024E1303079F597
:10022000D3FC05C0419A000026D308E2902ED5FCED
:1002300006C03395A9D41FD37F61419A0000D1FC39
:100240000DC032E0A1D40AE1202E05E0302E01E0FD
:10025000602E702EFEE0E2ED65D37062D0FC0EC021
:10026000A395A33009F4A0E0736002E2302E03E509
:10027000202E02E0602E702E00E292D368CF313043
:1002800009F063C0D5FC06C033277ED4E9D27F6174
:1002900041980000D4FC06C07F61882311F08A9544
:1002A00001C086E0D1FC05C07F618395873009F4E9
:1002B0008827D0FE03C0D2FE01C046C07F61FEE0A9
:1002C000EAED73D005911491F12FE02FF894D0FC52
:1002D00002C033D202C009E906D200810F938230F6
:1002E00091F08330B9F0863071F10F91FF93EF9365
:1002F000FEE0E8EE5AD01491EF91FF91011718F14A
:100300000027008320C0002700833197008355D049
:10031000AA2419C0FF93EF93F1E0E5E0008104FD0A
:100320000650FEE0E2E4E00F0027F01F1491EF9189
:10033000FF910F91003021F0011728F001E002C079
:10034000012F0A950083789402CFD1FC04C0332793
:100350001BD486D27F61D3FC05C0419A00008BD2AA
:1003600008E2902ED0FC02C000E47027D4FC06C046
:1003700076FDEDCEF1E0EAE0E0D17062D5FC07C099
:1003800076FDE5CEF1E0EAE009E9ADD17062D2FC9C
:10039000DECE76FDDCCEF1E0E9E0CFD100810036A3
:1003A00011F400E000837062D2CE8F93880FE80FC3
:1003B0008827F81F8F91089518950F930093B20026
:1003C0000091B60004FDFCCF0F9108950F930FB775
:1003D0000F931F93FF93EF93DF93CF930EB30370AD
:1003E0000EBB48D000E2A394A016C1F5F29A11D139
:1003F000992309F09A95AA24FFE0E0E2D1E0C0E059
:10040000059119910117B9F405911991011799F402
:1004100005911991011779F404911881011759F484
:1004200077FD08C0239700E0099309930993088397
:10043000706801C07F77303041F4992079F09A9448
:1004400069F4419800000CD209C0313009F406C0AB
:10045000992021F09A9411F441980000222309F088
:100460002A95CF91DF91EF91FF911F910F910FBFCF
:100470000F9118950F93F19B0CC009B10077069569
:10048000802A076C80225A9A00005B980000F1983D
:100490000EC009B100770695069506950695802A47
:1004A000086F80225B9A00005A980000F19A0FE3CF
:1004B0008022801611F400E8802A082D0C25006C9B
:1004C000DC2CE82CD022E022D094E094C82C0F91B0
:1004D0000895FF93EF930F931F9302E0602E02E0C5
:1004E000702E0AE0202E04E1302E10E1F1E0EAE067
:1004F0000081E7D17F9204E0702E0AE351D27F9011
:10050000210E31970081DDD11F910F91EF91FF9165
:10051000089504E5202E04E4302E01E0602E702EB4
:1005200001EC00937A0000917A0004FFFCCF04E90B
:1005300000937A00009179000B3410F40EE209C0A8
:10054000003510F40DE205C00A3510F40CE201C0CC
:100550000BE226D20895FF93EF930F931F9302E0CF
:10056000602EA13011F402E001C004E0702E1FEFF4
:1005700071FF19C07D7FF1E0E3E000814F925F924F
:10058000313019F4803009F466D1A13011F499D1D9
:1005900001C07CD15F904F90A0FD770C0AE300D2A0
:1005A000A0FD769402C000E2200E70FF15C07E7F91
:1005B00000E1200EF1E0E2E000814F925F923130E5
:1005C00019F4813009F447D1A13011F47AD101C076
:1005D0005DD15F904F9002C000E3200E01E0602EDD
:1005E000702E0EE0300EF1E0E1E000814F925F925C
:1005F000313019F4823009F42ED1A13011F461D1D7
:1006000001C044D15F904F901F910F91EF91FF91E6
:100610000895FF93EF930F93F1E0E0E08ED0008117
:10062000083009F05CC00091B2000130E0F302E054
:100630000093B2000091B60004FDFCCF0027F39AAE
:1006400001937BD00081003609F049C00027F49A5D
:100650007160019372D00081003609F040C000271C
:10066000F59A7260019369D000810432C1F50027C8
:10067000F69A74600193FF93EF93F1E0E8E0008154
:100680000395073009F400270083EF91FF9155D0BF
:1006900000811F93FF93EF930F93F1E0E5E000815A
:1006A00004FD06500A95FEE0E2E4E00F00E0F01FD2
:1006B00014910F91EF91FF9101171F9181F401E0C7
:1006C000F79A7860019339D00081033141F4706169
:1006D00001E0019332D0F09B02C031962ED00F91F1
:1006E000EF91FF9108951F930F934F93F09810810E
:1006F000100F4FB72DF01F931F701A301F9140F04D
:100700001F93107F103A1F9108F00EC006E0100FE3
:1007100040FD05C01F93107F103A1F9148F000E67E
:10072000100F30F4F09A04C006E6100F08F4F09AA7
:1007300010834F910F911F9108950F9301E0D3DF24
:100740000F9108950F930EBD0DB507FFFDCF0F91CB
:1007500008950F9308E10A95F1F70F91089520E1AC
:100760002030F1F7089522E02030F1F70895FF934B
:10077000EF930F931F93AF93A0E01FEF01E0602E64
:10078000702E05E0302EF1E0E4E072FF4DC07B7F7B
:10079000202E00814F925F92313019F4833009F49A
:1007A0005AD074D05F904F904F925F92313019F4CD
:1007B000843009F450D03ED05F904F9005E0302E49
:1007C000F1E0E4E073FF30C0777F0DE1202E319639
:1007D000019104FD0650000F000FFF93EF93FEE020
:1007E000EEE4E00F00E0F01F4F925F92313019F419
:1007F000853009F430D096D05F904F90EF91FF9103
:1008000074FF12C07F7E0DE3202E319600814F923F
:100810005F92313019F4863009F41DD037D031970A
:10082000008134D05F904F90AF911F910F91EF9165
:10083000FF9108951F93F1E0E8E0008116E0212E7A
:100840001CE3312EFEE0EEE71CE0019FE00DF11D00
:1008500069D01F9108954F925F924F905F900895D5
:100860000F93299800002898000009E36BDF299A6C
:1008700000000F9108950F93299800002898000018
:1008800008E360DF299A00000F9108950F934F93BA
:100890001F93A03011F410E301C011E6462D440F60
:1008A000440F440F0F9302950F70010F79D0240E5F
:1008B0000F910F70010F74D0240E1F914F910F9163
:1008C00008950F934F931F93EF93FF93462D440F7B
:1008D000440F440F17E0179D102DFBE0EAEC0F9337
:1008E00002950F70000FE00F0027F01F059158D000
:1008F000310E049155D00F91240E311A0F70000F54
:10090000FBE0EAECE00F0027F01F059149D0310E23
:10091000049146D0240E311AFF91EF911F914F910F
:100920000F9108950F93FF93EF934F93462D440F2C
:10093000440F440F0591002351F00A3328F0003C86
:1009400010F00F5701C006502BD0240EF3CF4F915B
:10095000EF91FF910F9108950F934F93462D440F00
:10096000440F440F0F9302950F700A3018F00F5C7C
:1009700017D002C0005D14D0240E0F910F700A3002
:1009800018F00F5C0DD002C0005D0AD0240E4F910C
:100990000F9108950F93E0DF012FDEDF0F9108958F
:1009A0000F931F93FF93EF932F923F924F935F9379
:1009B000FBE0EAEE00521127001F111F001F111F5C
:1009C000001F111FE00FF11F48E02998000015914A
:1009D0007F9227D0289800000CE2B4DE289A00000D
:1009E00058E01F9317FF02C0052D01C0042D6F9220
:1009F000A9DE6A94E9F76F90110F5A9599F71F9144
:100A000033947A9431F77F904A9509F7299A000038
:100A10005F914F913F902F90EF91FF911F910F9118
:100A200008950F93289800000AE28CDE289A0000AF
:100A3000022D88DE04E686DE289800000BE282DEC6
:100A4000289A0000032D03957DDE00E57BDE0F91E3
:100A50000895FEE0E6EF4098000081DE409A000035
:100A600005E07DDE0A95E9F7299A000072DE2998F3
:100A700000002898000001E065DE05E074DE0A95BC
:100A8000E9F706EC5FDE6FDE6EDE6DDE6CDE09EB35
:100A900059DE289A000000E055DE2898000006EB99
:100AA00051DE289A000017E005914CDE1A95E1F717
:100AB0002898000003EB46DE289A00001FE005910D
:100AC00041DE1A95E1F72898000005EB3BDE289AF5
:100AD000000001E037DE2898000007EB33DE289A9B
:100AE000000000E01FE02EDE1A95E9F728980000CC
:100AF0000DEB28DE289A000000E024DE2898000094
:100B000006E320DE289A000008E41CDE2898000096
:100B10000DE218DE289A000014E1059113DE1A9503
:100B2000E1F7289800000AEB0DDE289A00000FE29A
:100B300009DE03E007DE2898000005E203DE289ABC
:100B4000000001E6FFDD289800000EEBFBDD289A8F
:100B5000000008E5F7DD289800000AE3F3DD289A95
:100B6000000002E0EFDD2898000003E0EBDDFBDD94
:100B7000FADDF9DDF8DD01E1E5DDF5DDF4DD09E2C1
:100B8000E1DD299A000008950F931F932F923F9261
:100B9000299800000027202E302E43DF28980000DF
:100BA0000CE2D0DD289A0000042D10E51F9315E615
:100BB000C9DD1A95E9F71F911A95C1F7299A000026
:100BC0003F902F901F910F9108952A2822222426CA
:100BD0002424282326242621232221212124212ADA
:100BE0002721252729212626262500000000000090
:100BF00000007CBAC6C6C6C6BA7C00020606060657
:100C000002007C3A0606060602007C3A0606060644
:100C10003A7C7CB8C0C0C0C080007CB8C0C0C0C036
:100C2000B87C0080C0C0C0C0B87C0082C6C6C6C642
:100C3000BA7C0002060606063A7C7CBAC6C6C6C660
:100C400082003C428181818181FF3C42818181819E
:100C5000BDFF3C428181BD81BDFF3C42BD81BD8164
:100C6000BDFF060C183060C08000386CC6D6C66C5C
:100C700038001838181818187E007CC6061C306614
:100C8000FE007CC6063C06C67C001C3C6CCCFE0C00
:100C90001E00FEC0C0FC06C67C003860C0FCC6C694
:100CA0007C00FEC60C18303030007CC6C67CC6C640
:100CB0007C007CC6C67E060C780000181800001860
:100CC0001800386CC6FEC6C6C600FC66667C666642
:100CD000FC003C66C0C0C0663C00F86C6666666C92
:100CE000F800FE6268786862FE00FE6268786860FC
:100CF000F0000E1E36667E6666007C60607C66666E
:100D00007C007C66667C66667C007E6060606060FD
:100D100060001C3C6C6C6C6CFEC67E60607C60602D
:100D20007E00DBDB7E3C7EDBDB003C66061C066671
:100D30003C0066666E7E766666003C666E7E766613
:100D40006600666C7870786C66000E1E36666666A5
:100D50006600C6EEFEFED6D6C6006666667E66668F
:100D600066003C66666666663C007E66666666662B
:100D700066007C6666667C6060003C6660606066FB
:100D80003C007E181818181818006666663E06663D
:100D90003C007EDBDBDB7E18180066663C183C6698
:100DA00066006666666666667F036666663E06067B
:100DB0000600DBDBDBDBDBDBFF00DBDBDBDBDBDBEA
:100DC000FF03E060607C66667C00C6C6C6F6DEDEB9
:100DD000F6006060607C66667C00788C063E068C5F
:100DE0007800CEDBDBFBDBDBCE003E6666663E36A4
:100DF000660000000000000000000000000000008D
:100E0000007E00000000007E000000000000007E68
:100E1000007E0000007E000000000000007E000058
:100E2000007E0000007E007E00000000007E007E4C
:100E3000007E007E000000000000007E0000000038
:100E4000007E322932313231323231323132DFCD2D
:100E5000C200D4C5C200CCC0D000C0CFD000CCC02E
:100E6000C900C8DECD00C8DECB00C0C2C300D1C5FA
:100E7000CD00CECAD200CDCEDF00C4C5CA00CFCED1
:100E8000CDC5C4C5CBDCCDC8CA002020C2D2CED0CF
:100E9000CDC8CA202000202020D1D0C5C4C0202029
:100EA00020002020D7C5D2C2C5D0C32020002020DA
:100EB000CFDFD2CDC8D6C02020002020D1D3C1C1E1
:100EC000CED2C0202000C2CED1CAD0C5D1C5CDC897
:100ED000C500D2C0C9CCC5D0000003010201010188
:100EE0000401080105010601240060006000000003
:100EF00007001200999980048A54455243020A154A
:100F00001F2830373F474C5465758085000305071F
:100F1000090B0D0F00030507090B0D0F00050B0F43
:0E0F20000000000002010201020102010201B4
:00000001FF
