:020000020000FC
:1000000019C040C13FC13EC13DC13CC13BC144C11B
:1000100039C138C137C136C135C134C133C132C12C
:1000200031C130C12FC12EC12DC12CC12BC12AC15C
:1000300029C128C1F89402E00EBF0FEF0DBFA895AB
:1000400000270093600000E20093B60002E00093F6
:1000500070000FE70093B3000091B60003FDFCCFE2
:1000600001E00093B1000091B60000FDFCCF02E07A
:100070000093B0000091B60001FDFCCF0BEA0093A5
:10008000640007E003BF03E007B90DE708B90BE21E
:1000900004B907ED05B90CE00AB907EF0BB900E5A3
:1000A0000CBD01E00DBD0DB50EB500E005BF00E0D3
:1000B0000FBB33278827AA2400271127222733279D
:1000C00044275527662788279927AA27BB27CC27A7
:1000D000DD27EE27FF270FE3802EC02ED02EE02E47
:1000E00000E00EBB0ABD7FE100E0F1E0E0E001933B
:1000F000019308E3019306E1019305E2019307E010
:10010000019304E1019300E2019302E00083F1E036
:10011000E4E100E2008315E0212E312E1FEF512E85
:1001200010E0412E11E0612E712E789453D3299A5C
:1001300000003FD4419800008ED2889500E00093E3
:10014000B4000091B60002FDFCCF303049F4F39BBF
:1001500013C003E0202E0CE1302EF1D0D0D10CC022
:10016000313051F4F29B08C07FE103E0202E0CE116
:10017000302EE5D0C4D100C0303079F4D3FC05C0B6
:10018000419A000073D202E3902ED5FC05C033954E
:1001900010D46CD2419A0000D0CF313009F063C046
:1001A000D5FC06C0332705D456D27F6141980000A4
:1001B000D4FC05C0882311F08A9501C086E0D1FCEB
:1001C00004C08395873009F48827D0FE03C0D2FE8F
:1001D00001C048C0FEE0E4EC4ED005911491F12F2F
:1001E000E02FF894D0FC02C070D102C009E953D1CD
:1001F00000810F93823091F08330C9F0863089F10D
:100200000F91FF93EF93FEE0E2ED35D01491EF9163
:10021000FF91011730F10027008323C000270083DE
:100220003197008330D0F1E0E5E100831AC0FF93FD
:10023000EF93F1E0E5E0008104FD06500A95FDE052
:10024000E4EFE00F0027F01F1491EF91FF910F9161
:10025000003021F0011728F001E002C0012F0A95BB
:10026000008378946ACFD5FC05C03327A2D3F3D19D
:100270004198000062CF8F93880FE80F8827F81FFE
:100280008F91089518950F930093B2000091B600D6
:1002900004FDFCCF0F9108950F930FB70F93FF93B9
:1002A000EF930EB303700EBB1BD0F1E0E4E10081CD
:1002B000A394A01671F4F29A8FD0AA24303041F49E
:1002C000992039F09A9429F441980000C4D101C0D2
:1002D00000002A95EF91FF910F910FBF0F91189594
:1002E0000F93F19B0CC009B100770695802A076C2B
:1002F00080225A9A00005B980000F1980EC009B164
:1003000000770695069506950695802A086F802247
:100310005B9A00005A980000F19A0FE38022801641
:1003200011F400E8802A082D0C25006CDC2CE82C48
:10033000D022E022D094E094C82C0F910895FF932E
:10034000EF930F931F9302E0602E03E0702E1FEFD8
:1003500071FF12C07D7FF1E0E3E000814F925F9278
:10036000313021F4803011F4412E55248AD15F9030
:100370004F900AE3D6D102C000E2200E70FF12C0F7
:100380007E7F00E1200EF1E0E2E000814F925F927B
:10039000313021F4813011F4412E552472D15F9017
:1003A0004F9002C000E3200E01E0602E702E0EE0A0
:1003B000300EF1E0E1E000814F925F92313021F4A4
:1003C000823011F4412E55245CD15F904F901F91E3
:1003D0000F91EF91FF910895FF93EF930F93F1E049
:1003E000E0E073D00081083009F051C00027F39A93
:1003F00001936BD00081003609F049C00027F49AC0
:100400007160019362D00081003609F040C000277E
:10041000F59A7260019359D000810432C1F500272A
:10042000F69A74600193FF93EF93F1E0E8E00081A6
:100430000395073009F400270083EF91FF9145D021
:1004400000811F93FF93EF930F93F1E0E5E00081AC
:1004500004FD06500A95FDE0E4EFE00F00E0F01F18
:1004600014910F91EF91FF9101171F9181F401E019
:10047000F79A7860019329D00081033141F47061CB
:1004800001E0019322D0F09B02C031961ED00F9163
:10049000EF91FF9108951F930F93F0981081100F23
:1004A0002DF01F931F701A301F9110F006E0100FEF
:1004B0001F93107F103A1F9120F000E6100F08F4F0
:1004C000F09A10830F911F9108950F9301E0E3DFDD
:1004D0000F9108950F930EBD0DB507FFFDCF0F913E
:1004E00008950F9308E10A95F1F70F91089520E11F
:1004F0002030F1F7089522E02030F1F70895FF93BE
:10050000EF930F931F931FEF01E0602E702E05E015
:10051000302EF1E0E4E072FF52C07B7F202E00819C
:100520004F925F92313021F4833011F4412E5524E3
:10053000A8D05F904F904F925F92313021F4843079
:1005400011F4412E552440D05F904F9005E0302E9D
:10055000F1E0E4E073FF33C0777F0DE1202E3196A8
:10056000019104FD06500A95000F000FFF93EF93D1
:10057000FEE0E0E0E00F00E0F01F4F925F923130CC
:1005800021F4853011F4412E552491D05F904F9085
:10059000EF91FF9174FF13C07F7E0DE3202E319603
:1005A00000814F925F92313021F4863011F4412E58
:1005B000552467D03197008164D05F904F901F9190
:1005C0000F91EF91FF9108951F93F1E0E8E0008112
:1005D0001127FEE0ECE7E00FF11F1491212E1CE340
:1005E000312EFEE0EEE6000FE00F0027F01F059130
:1005F0001491E02FF12F5BD01F9108950F931F935B
:100600003F924F935F93402F512F29980000CAD0FB
:10061000289800000CE25EDF289A0000052D4F9319
:1006200059DF4A95E9F74F9133945A9581F7299A02
:1006300000005F914F913F900F911F9108950F938C
:10064000052D542C402E0F91D9DF0F93052D542CDE
:10065000402E0F9108950F932998000028980000CC
:1006600009E338DF299A00000F9108950F93299824
:1006700000002898000008E32DDF299A00000F9160
:1006800008950F934F93462D440F440F440F0F933B
:100690000695069506950695005D43D0240E0F91AC
:1006A0000F70005D3ED0240E4F910F9108950F936F
:1006B000FF93EF934F93462D440F440F440F059142
:1006C000002331F0003808F000542BD0240EF7CF6F
:1006D0004F91EF91FF910F9108950F934F93462DF6
:1006E000440F440F440F0F9302950F700A3018F017
:1006F000095C17D002C0005D14D0240E0F910F705A
:100700000A3018F0095C0DD002C0005D0AD0240E3A
:100710004F910F9108950F93E0DF012FDEDF0F91CE
:1007200008950F931F93FF93EF932F923F924F9350
:100730005F93F9E0E4EF00521127001F111F001F23
:10074000111F001F111FE00FF11F48E02998000042
:1007500015917F9227D0289800000CE2BBDE289AE2
:10076000000058E01F9317FF02C0052D01C0042DA3
:100770006F92B0DE6A94E9F76F90110F5A9599F76E
:100780001F9133947A9431F77F904A9509F7299A0B
:1007900000005F914F913F902F90EF91FF911F913B
:1007A0000F9108950F93289800000AE293DE289A8B
:1007B0000000022D8FDE04E68DDE289800000BE29B
:1007C00089DE289A0000032D039584DE00E582DE91
:1007D0000F9108950F934098000089DE409A000021
:1007E00086DE85DE84DE83DE82DE299A000079DE05
:1007F000299800002898000001E06CDE7CDE7BDE9A
:100800007ADE79DE78DE06EC65DE75DE74DE73DEB8
:1008100072DE09EB5FDE289A000000E05BDE2898BC
:10082000000006EB57DE289A000000E853DE04E0E3
:1008300051DE0AE84FDE04E54DDE05E44BDE02E55D
:1008400049DE03E447DE2898000003EB43DE289AE4
:10085000000002E03FDE0AE03DDE05E13BDE0FE1A5
:1008600039DE08E237DE00E335DE07E333DE0FE38F
:1008700031DE07E42FDE0CE42DDE04E52BDE05E699
:1008800029DE05E727DE00E825DE05E823DE2898D7
:10089000000005EB1FDE289A000001E01BDE28980F
:1008A000000007EB17DE289A000000E013DE12DEDE
:1008B00011DE10DE0FDE0EDE0DDE0CDE0BDE0ADEDC
:1008C00009DE08DE07DE06DE05DE289800000DEBF7
:1008D00001DE289A000000E0FDDD2898000006E314
:1008E000F9DD289A000008E4F5DD289800000DE203
:1008F000F1DD289A000000E0EDDD03E0EBDD05E02E
:10090000E9DD07E0E7DD09E0E5DD0BE0E3DD0DE033
:10091000E1DD0FE0DFDD00E0DDDD03E0DBDD05E054
:10092000D9DD07E0D7DD09E0D5DD0BE0D3DD0DE053
:10093000D1DD0FE0CFDD00E0CDDD05E0CBDD0BE06C
:10094000C9DD0FE0C7DD289800000AEBC3DD289A57
:1009500000000FE2BFDD03E0BDDD2898000005E2E6
:10096000B9DD289A000001E6B5DD289800000EEBFD
:10097000B1DD289A000008E5ADDD289800000AE303
:10098000A9DD289A000002E0A5DD2898000001E218
:10099000A1DD03E09FDDAFDDAEDDADDDACDD01E16E
:1009A00099DDA9DDA8DD09E295DD299A00000F9106
:1009B00008950F931F932F923F92299800000027CC
:1009C000202E302EEFDE289800000CE283DD289ADE
:1009D0000000042D10E51F9315E67CDD1A95E9F75C
:1009E0001F911A95C1F7299A00003F902F901F91EF
:1009F0000F9108950000000000000000183C3C1812
:100A00001800180066662400000000006C6CFE6C84
:100A1000FE6C6C00183E603C067C180000C6CC18CA
:100A20003066C600386C3876DCCC7600181830009A
:100A3000000000000C18303030180C0030180C0C7E
:100A40000C18300000663CFF3C6600000018187E61
:100A50001818000000000000001818300000007E88
:100A6000000000000000000000181800060C1830FC
:100A700060C08000386CC6D6C66C380018381818AC
:100A800018187E007CC6061C3066FE007CC6063C3C
:100A900006C67C001C3C6CCCFE0C1E00FEC0C0FCDC
:100AA00006C67C003860C0FCC6C67C00FEC60C18BA
:100AB000303030007CC6C67CC6C67C007CC6C67E94
:100AC000060C78000018180000181800001818000C
:100AD00000181830060C1830180C060000007E00B4
:100AE000007E00006030180C183060007CC60C18C6
:100AF000180018007CC6DEDEDEC07800386CC6FE4A
:100B0000C6C6C600FC66667C6666FC003C66C0C065
:100B1000C0663C00F86C6666666CF800FE62687839
:100B20006862FE00FE6268786860F0003C66C0C0E3
:100B3000CE663A00C6C6C6FEC6C6C6003C18181821
:100B400018183C001E0C0C0CCCCC7800E6666C78B7
:100B50006C66E600F06060606266FE00C6EEFEFE57
:100B6000D6C6C600C6E6F6DECEC6C6007CC6C6C67B
:100B7000C6C67C00FC66667C6060F0007CC6C6C6AB
:100B8000C6CE7C0EFC66667C6C66E6003C66301861
:100B90000C663C007E7E5A1818183C00C6C6C6C6B5
:100BA000C6C67C00C6C6C6C6C66C3800C6C6C6D693
:100BB000D6FE6C00C6C66C386CC6C6006666663C5F
:100BC00018183C00FEC68C183266FE003C303030EF
:100BD00030303C00C06030180C0602003C0C0C0C9D
:100BE0000C0C3C0010386CC6000000000000000037
:100BF000000000FF30180C00000000000000780C1E
:100C00007CCC7600E0607C666666DC0000007CC61A
:100C1000C0C67C001C0C7CCCCCCC760000007CC612
:100C2000FEC07C003C6660F86060F000000076CC9E
:100C3000CC7C0CF8E0606C766666E600180038182C
:100C400018183C00060006060666663CE060666C06
:100C5000786CE6003818181818183C000000ECFEF4
:100C6000D6D6D6000000DC666666660000007CC64C
:100C7000C6C67C000000DC66667C60F0000076CCB6
:100C8000CC7C0C1E0000DC766060F00000007EC0B2
:100C90007C06FC003030FC3030361C000000CCCC30
:100CA000CCCC76000000C6C6C66C38000000C6D6A4
:100CB000D6FE6C000000C66C386CC6000000C6C6CC
:100CC000C67E06FC00007E4C18327E000E1818709E
:100CD00018180E0018181818181818007018180E80
:100CE0001818700076DC0000000000000010386C5E
:100CF000C6C6FE000E1E36667E6666007C60607CA0
:100D000066667C007C66667C66667C007E606060F1
:100D1000606060001C3C6C6C6C6CFEC67E60607C2D
:100D200060607E00DBDB7E3C7EDBDB003C66061C1D
:100D300006663C0066666E7E766666003C666E7E83
:100D400076666600666C7870786C66000E1E366695
:100D500066666600C6EEFEFED6D6C6006666667E8F
:100D6000666666003C66666666663C007E6666662B
:100D7000666666007C6666667C6060003C666060F5
:100D800060663C007E181818181818006666663EE3
:100D900006663C007EDBDBDB7E18180066663C18CE
:100DA0003C6666006666666666667F036666663EE5
:100DB00006060600DBDBDBDBDBDBFF00DBDBDBDB94
:100DC000DBDBFF03E060607C66667C00C6C6C6F6BF
:100DD000DEDEF6006060607C66667C00788C063E35
:100DE000068C7800CEDBDBFBDBDBCE003E66666686
:100DF0003E366600322932313231323231323132CE
:100E0000DFCDC200D4C5C200CCC0D000C0CFD0005E
:100E1000CCC0C900C8DECD00C8DECB00C0C2C30054
:100E2000D1C5CD00CECAD200CDCEDF00C4C5CA0028
:100E3000CFCECDC5C4C5CBDCCDC8CA00C2D2CED0C2
:100E4000CDC8CA00D1D0C5C4C000D7C5D2C2C5D094
:100E5000C300CFDFD2CDC8D6C000D1D3C1C1CED25E
:100E6000C000C2CED1CAD0C5D1C5CDC8C500300ED4
:100E70003C0E440E4A0E520E5A0E620E06161E16F6
:100E800016160600D7C0D13A0000CCC8CDD3D2C0C8
:100E90003A00D1C5CAD3CDC4C03A0000D7C8D1CB1F
:100EA000CE3A0000C4C5CDDC3A00CCC5D1DFD63A7D
:100EB0000000C3CEC400840E8A0E920E9C0EA40EB7
:100EC000AA0EB20E0301020101010401080105018D
:100ED00006012400600060000000070012009999DC
:00000001FF
