:020000020000FC
:1000000019C070C16FC16EC16DC16CC16BC174C1CB
:1000100069C168C167C166C165C164C163C162C1AC
:1000200061C160C15FC15EC15DC15CC15BC15AC1DC
:1000300059C158C1F89402E00EBF0FEF0DBFA8954B
:1000400000270093600000E20093B60002E00093F6
:10005000700000E80093B3000091B60003FDFCCFF0
:1000600001E00093B1000091B60000FDFCCF02E07A
:100070000093B0000091B60001FDFCCF0BEA0093A5
:10008000640007E003BF03E007B90DE708B90BE21E
:1000900004B907ED05B90CE00AB907EF0BB900E5A3
:1000A0000CBD01E00DBD0DB50EB500E005BF00E0D3
:1000B0000FBB33278827AA2400271127222733279D
:1000C000442755276627772788279927AA27BB27FC
:1000D000CC27DD27EE27FF270FE3802EC02ED02E62
:1000E000E02E00E00EBB0ABD00E0F1E0E0E001938D
:1000F000019308E3019306E1019305E2019307E010
:10010000019304E1019300E2019302E00083F1E036
:10011000E4E100E2008315E0212E312E1FEF512E85
:1001200010E0412E11E0612E712E789410D3299A9F
:100130000000FCD3419800004ED2889500E0009367
:10014000B4000091B60002FDFCCF303061F4F39BA7
:1001500042C003E0202E0CE1302E21D105E0302EEC
:10016000202ECDD138C03130B1F5F29B34C0FDE046
:10017000E6E3B1D005911491E02FF12F05E0302E88
:10018000202E01E0602E702E52D205E1302E002785
:10019000202E04E0801781F003E0602E702EFDE039
:1001A000E4E499D005911491E02FF12F06E0801737
:1001B00059F0008126D20FC001E0602E702E18E0A9
:1001C00009E4FDD1CCD107C0319600811AD2319714
:1001D000008117D200C0303079F4D3FC05C0419AB9
:1001E000000004D202E3902ED5FC05C033959ED3C7
:1001F000FDD1419A0000A1CF313009F064C0D5FC97
:1002000005C0332793D3E7D141980000D4FC06C042
:100210008DD3882311F08A9501C086E0D1FC05C0FA
:1002200085D38395873009F48827D0FE03C0D2FE9A
:1002300001C048C0FDE0E4E44ED005911491F12FD7
:10024000E02FF894D0FC02C040D102C009E923D1CC
:1002500000810F93823091F08330C9F0863089F1AC
:100260000F91FF93EF93FDE0E2E535D01491EF910C
:10027000FF91011730F10027008323C0002700837E
:100280003197008330D0F1E0E5E100831AC0FF939D
:10029000EF93F1E0E5E0008104FD06500A95FCE0F3
:1002A000E6E7E00F0027F01F1491EF91FF910F9107
:1002B000003021F0011728F001E002C0012F0A955B
:1002C000008378943ACFD5FC05C033272FD383D150
:1002D0004198000032CF8F93880FE80F8827F81FCE
:1002E0008F91089518950F930093B2000091B60076
:1002F00004FDFCCF0F9108950F930FB70F93FF9359
:10030000EF930EB303700EBB1BD0F1E0E4E100816C
:10031000A394A01671F4F29A65D0AA24303041F467
:10032000992039F09A9429F44198000054D101C0E1
:1003300000002A95EF91FF910F910FBF0F91189533
:100340000F93F19B0CC009B100770695802A076CCA
:1003500080225A9A00005B980000F1980EC009B103
:1003600000770695069506950695802A086F8022E7
:100370005B9A00005A980000F19A0FE380228016E1
:1003800011F400E8802A082D0C25006CDC2CE82CE8
:10039000D022E022D094E094C82C0F910895FF93CE
:1003A000EF930F931F9302E0602E03E0702E12E094
:1003B000F1E0E3E0008125D1113039F00AE36ED19C
:1003C00000E1200E31971A95A9F701E0602E702EFA
:1003D0000EE0300E3197008114D11F910F91EF91F3
:1003E000FF910895FF93EF930F93F1E0E0E06DD05C
:1003F0000081083009F04BC00027F39A019365D0C3
:100400000081003609F043C00027F49A01935DD0C3
:1004100000810036E1F50027F59A019356D000815E
:100420000432A9F50027F69A0193FF93EF93F1E0C8
:10043000E8E000810395073009F400270083EF917D
:10044000FF9143D000811F93FF93EF930F93F1E04F
:10045000E5E0008104FD06500A95FCE0E6E7E00FC8
:1004600000E0F01F14910F91EF91FF9101171F9180
:1004700071F401E0F79A019328D00081033139F437
:1004800001E0019322D0F09B02C031961ED00F9163
:10049000EF91FF9108951F930F93F0981081100F23
:1004A0002DF01F931F701A301F9110F006E0100FEF
:1004B0001F93107F103A1F9120F000E6100F08F4F0
:1004C000F09A10830F911F9108950F9301E0E3DFDD
:1004D0000F9108950F930EBD0DB507FFFDCF0F913E
:1004E00008950F9308E10A95F1F70F91089520E11F
:1004F0002030F1F7089522E02030F1F70895FF93BE
:10050000EF930F931F9301E0602E702EF1E0E4E073
:10051000008177D008E0200E3196019104FD06504D
:100520000A95000F000FFF93EF93FCE0E2E8E00F65
:1005300000E0F01F7CD0EF91FF9108E0200E319693
:1005400000815FD0319700815CD005E0202E0CE364
:10055000302E05D01F910F91EF91FF910895F1E09A
:10056000E8E00081FCE0E0EF000FE00F0027F01F63
:1005700005911491E02FF12F5AD008950F931F93F6
:100580003F924F935F93402F512F29980000C7D07F
:10059000289800000CE29EDF289A0000052D4F935A
:1005A00099DF4A95E9F74F9133945A9581F7299A43
:1005B00000005F914F913F900F911F9108950F930D
:1005C000052D542C402E0F91D9DF0F93052D542C5F
:1005D000402E0F9108950F9329980000289800004D
:1005E00009E378DF299A00000F9108950F93299865
:1005F00000002898000008E36DDF299A00000F91A1
:1006000008950F934F93462D440F440F440F0F93BB
:100610000695069506950695005D40D0240E0F912F
:100620000F70005D3BD0240E4F910F9108950F93F2
:10063000FF93EF934F93462D440F440F440F0591C2
:10064000002319F02BD0240EFACF4F91EF91FF9198
:100650000F9108950F934F93462D440F440F440F6D
:100660000F9302950F700A3018F0095C17D002C082
:10067000005D14D0240E0F910F700A3018F0095C41
:100680000DD002C0005D0AD0240E4F910F91089545
:100690000F93E0DF012FDEDF0F9108950F931F937B
:1006A000FF93EF932F923F924F935F93F9E0EEE623
:1006B00000521127001F111F001F111F001F111FC3
:1006C000E00FF11F48E02998000015917F9227D094
:1006D000289800000CE2FEDE289A000058E01F93E4
:1006E00017FF02C0052D01C0042D6F92F3DE6A943E
:1006F000E9F76F90110F5A9599F71F9133947A94F7
:1007000031F77F904A9509F7299A00005F914F9140
:100710003F902F90EF91FF911F910F9108950F93AC
:10072000289800000AE2D6DE289A0000022DD2DEC8
:1007300004E6D0DE289800000BE2CCDE289A000008
:10074000032D0395C7DE00E5C5DE0F9108950F93D5
:1007500040980000CCDE409A0000C9DEC8DEC7DE4B
:10076000C6DEC5DE299A0000BCDE29980000289864
:10077000000001E0AFDEBFDEBEDEBDDEBCDEBBDE04
:1007800006ECA8DEB8DEB7DEB6DEB5DE09EBA2DE2B
:10079000289A000000E09EDE2898000006EB9ADE12
:1007A000289A000000E896DE04E094DE0AE892DE73
:1007B00004E590DE05E48EDE02E58CDE03E48ADEED
:1007C0002898000003EB86DE289A000002E082DE13
:1007D0000AE080DE05E17EDE0FE17CDE08E27ADE03
:1007E00000E378DE07E376DE0FE374DE07E472DE13
:1007F0000CE470DE04E56EDE05E66CDE05E76ADE1D
:1008000000E868DE05E866DE2898000005EB62DE99
:10081000289A000001E05EDE2898000007EB5ADE0F
:10082000289A000000E056DE55DE54DE53DE52DE2C
:1008300051DE50DE4FDE4EDE4DDE4CDE4BDE4ADE5C
:1008400049DE48DE289800000DEB44DE289A0000BF
:1008500000E040DE2898000006E33CDE289A000015
:1008600008E438DE289800000DE234DE289A000003
:1008700000E030DE03E02EDE05E02CDE07E02ADEBD
:1008800009E028DE0BE026DE0DE024DE0FE022DEAC
:1008900000E020DE03E01EDE05E01CDE07E01ADEDD
:1008A00009E018DE0BE016DE0DE014DE0FE012DECC
:1008B00000E010DE05E00EDE0BE00CDE0FE00ADEED
:1008C000289800000AEB06DE289A00000FE202DEFC
:1008D00003E000DE2898000005E2FCDD289A000015
:1008E00001E6F8DD289800000EEBF4DD289A000000
:1008F00008E5F0DD289800000AE3ECDD289A000006
:1009000002E0E8DD2898000001E2E4DD03E0E2DD3A
:10091000F2DDF1DDF0DDEFDD01E1DCDDECDDEBDD75
:1009200009E2D8DD299A00000F9108950F931F93D3
:100930002F923F92299800000027202E302EEFDEC4
:10094000289800000CE2C6DD289A0000042D10E56E
:100950001F9315E6BFDD1A95E9F71F911A95C1F7A8
:10096000299A00003F902F901F910F910895000049
:10097000000000000000183C3C18180018006666D3
:100980002400000000006C6CFE6CFE6C6C00183ED5
:10099000603C067C180000C6CC183066C600386C77
:1009A0003876DCCC760018183000000000000C18F7
:1009B000303030180C0030180C0C0C183000006669
:1009C0003CFF3C6600000018187E1818000000006C
:1009D0000000001818300000007E00000000000039
:1009E000000000181800060C183060C08000386C39
:1009F000C6D6C66C38001838181818187E007CC681
:100A0000061C3066FE007CC6063C06C67C001C3C0C
:100A10006CCCFE0C1E00FEC0C0FC06C67C0038601C
:100A2000C0FCC6C67C00FEC60C18303030007CC648
:100A3000C67CC6C67C007CC6C67E060C7800001844
:100A40001800001818000018180000181830060CBC
:100A50001830180C060000007E00007E0000603098
:100A6000180C183060007CC60C18180018007CC6E2
:100A7000DEDEDEC07800386CC6FEC6C6C600FC6688
:100A8000667C6666FC003C66C0C0C0663C00F86CD4
:100A90006666666CF800FE6268786862FE00FE6258
:100AA00068786860F0003C66C0C0CE663A00C6C692
:100AB000C6FEC6C6C6003C18181818183C001E0C06
:100AC0000C0CCCCC7800E6666C786C66E600F060C6
:100AD00060606266FE00C6EEFEFED6C6C600C6E6D2
:100AE000F6DECEC6C6007CC6C6C6C6C67C00FC66A0
:100AF000667C6060F0007CC6C6C6C6CE7C0EFC6616
:100B0000667C6C66E6003C6630180C663C007E7EB7
:100B10005A1818183C00C6C6C6C6C6C67C00C6C64B
:100B2000C6C6C66C3800C6C6C6D6D6FE6C00C6C6DB
:100B30006C386CC6C6006666663C18183C00FEC67B
:100B40008C183266FE003C30303030303C00C060E3
:100B500030180C0602003C0C0C0C0C0C3C0010383D
:100B60006CC60000000000000000000000FF30180C
:100B70000C00000000000000780C7CCC7600E060E7
:100B80007C666666DC0000007CC6C0C67C001C0C6F
:100B90007CCCCCCC760000007CC6FEC07C003C66E1
:100BA00060F86060F000000076CCCC7C0CF8E0606F
:100BB0006C766666E6001800381818183C000600C7
:100BC00006060666663CE060666C786CE6003818DF
:100BD000181818183C000000ECFED6D6D60000000D
:100BE000DC666666660000007CC6C6C67C00000047
:100BF000DC66667C60F0000076CCCC7C0C1E0000CD
:100C0000DC766060F00000007EC07C06FC003030C6
:100C1000FC3030361C000000CCCCCCCC7600000080
:100C2000C6C6C66C38000000C6D6D6FE6C000000F2
:100C3000C66C386CC6000000C6C6C67E06FC000046
:100C40007E4C18327E000E18187018180E001818F6
:100C50001818181818007018180E1818700076DC7C
:100C60000000000000000010386CC6C6FE003E66A2
:100C7000C6FEC6C6C6003229323132313232313276
:100C800031324A616E00466562004D61720041700A
:100C900072004D6179004A756E004A756C004175AD
:100CA0006700536570004F6374004E6F76004465B3
:100CB00063004D6F6E646179000054756573646103
:100CC00079005765646E6573646179005468757264
:100CD0007364617900004672696461790000536150
:100CE000747572646179000053756E6461790000F7
:100CF000B20CBA0CC20CCC0CD60CDE0CE80C484F73
:100D000055523A004D494E5554453A005345434FCC
:100D10004E443A004441593A0000444159204F465C
:100D2000205745454B3A00004D4F4E54483A00007D
:100D3000594541520000FE0C040D0C0D140D1A0D06
:100D4000280D300D03010201010104010801050114
:100D5000060124006000600000000700120099995D
:00000001FF
