:2000000019C050C14FC14EC14DC14CC14BC14BC149C148C147C146C145C144C143C142C170
:2000200041C140C13FC13EC13DC13CC13BC13AC139C138C1F89402E00EBF0FEF0DBFA89597
:2000400000270093600000E20093B60002E00093700004EA0093B3000091B60004FDFCCF2F
:2000600001E00093B1000091B60001FDFCCF02E00093B0000091B60000FDFCCF0BEA00938F
:20008000640007E003BF03E007B90DE708B90BE204B907ED05B90CE00AB907EF0BB900E551
:2000A0000CBD01E00DBD0DB50EB500E005BF00E00FBB002711272227332744275527662783
:2000C0007727882799270FE3802EC02ED02EE02E00E0F1E0E0E00193019308E3019306E17A
:2000E000019305E2019307E0019304E1019300E2019302E00083F1E0E4E103E1008315E030
:20010000212E312E1FEF512E10E0412E11E0612E712E789401D3299A0000EDD341980000EA
:200120003DD288950027A01661F4F39B3FC003E0202E0CE1302E16D105E0302E202EC2D14D
:2001400035C0F29B33C0FDE0E0E0A5D005911491E02FF12F05E0302E202E01E0602E702E10
:2001600049D205E1302E0027202E04E0B01681F003E0602E702EFDE0EEE08DD0059114913E
:20018000E02FF12F06E0B01659F000811DD20EC001E0602E702E18E009E4F4D1C3D106C0EC
:2001A0003196008111D2319700810ED20027A01679F4D3FC05C0419A0000FBD102E3902EC3
:2001C000D5FC05C0A39497D3F4D1419A0000A9CFD5FC05C0AA248FD3E1D141980000D4FCAF
:2001E00007C089D3BB2011F0BA9402C006E0B02ED1FC06C080D3B39407E0B01609F4BB2476
:20020000D0FE03C0D2FE01C045C0FDE0EEE043D005911491F12FE02FF894D0FC02C038D16C
:2002200002C009E91BD100810F9302E0B016A1F003E0B016A1F006E0B01659F10F91FF9360
:20024000EF93FDE0ECE127D01491EF91FF91011700F1002700831DC0002700831AC0FF9320
:20026000EF93F1E0E5E0008104FD06500A95FCE0E0E4E00F0027F01F1491EF91FF910F91D5
:20028000003021F0011728F001E002C0012F0A950083789446CFBF92BB0CEB0DBB24FB1DD0
:2002A000BF90089518950F93FF93EF930FB70F9300270093B2000091B60004FDFCCF0EB347
:2002C00003700EBB20D02F93F1E0E4E1019120812395201779F4F29A68D022270027A01621
:2002E00041F4992039F09A9429F44198000056D101C0000020832F912A950F910FBFEF91CB
:20030000FF910F9118950F93F19B0CC009B100770695802A076C80225A9A00005B98000094
:20032000F1980EC009B100770695069506950695802A086F80225B9A00005A980000F19A94
:200340000FE38022801611F400E8802A082D0C25006CDC2CE82CD022E022D094E094C82C2E
:200360000F910895FF93EF930F931F9302E0602E03E0702E12E0F1E0E3E0008125D11130A9
:2003800039F00AE370D100E1200E31971A95A9F701E0602E702E0EE0300E3197008114D179
:2003A0001F910F91EF91FF910895FF93EF930F93F1E0E0E06DD00081003109F04BC00027DF
:2003C000F39A019365D00081003609F043C00027F49A01935DD000810036E1F50027F59A5B
:2003E000019356D000810432A9F50027F69A0193FF93EF93F1E0E8E000810395073009F4A9
:2004000000270083EF91FF9143D000811F93FF93EF930F93F1E0E5E0008104FD06500A9519
:20042000FCE0E0E4E00F00E0F01F14910F91EF91FF9101171F9171F401E0F79A019328D0BE
:200440000081033139F401E0019322D0F09B02C031961ED00F91EF91FF9108951F930F93B0
:20046000F0981081100F2DF01F931F701A301F9110F006E0100F1F93107F103A1F9120F09C
:2004800000E6100F08F4F09A10830F911F9108950F9301E0E3DF0F9108950F930EBD0DB5A0
:2004A00007FFFDCF0F9108950F9308E10A95F1F70F91089524E12030F1F7089522E02030B2
:2004C000F1F70895FF93EF930F931F9301E0602E702EF1E0E4E0008177D008E0200E3196E8
:2004E000019104FD06500A95000F000FFF93EF93FCE0ECE4E00F00E0F01F7CD0EF91FF915C
:2005000008E0200E319600815FD0319700815CD005E0202E0CE3302E05D01F910F91EF91B4
:20052000FF910895F1E0E8E00081FCE0EAEB000FE00F0027F01F05911491E02FF12F5AD0FB
:2005400008950F931F933F924F935F93402F512F29980000C9D0289800000CE29EDF289ACF
:200560000000052D4F9399DF4A95E9F74F9133945A9581F7299A00005F914F913F900F9120
:200580001F9108950F93052D542C402E0F91D9DF0F93052D542C402E0F9108950F93299892
:2005A00000002898000009E378DF299A00000F9108950F93299800002898000008E36DDFDE
:2005C000299A00000F9108950F934F93462D440F440F440F0F930695069506950695005DC0
:2005E00042D0240E0F910F70005D3DD0240E4F910F9108950F93FF93EF934F93462D440F81
:20060000440F440F0591002319F02DD0240EFACF4F91EF91FF910F9108950F934F93462D56
:20062000440F440F440F0F9306950695069506950A3018F0095C17D002C0005D14D0240EF0
:200640000F910F700A3018F0095C0DD003C0005D0AD0240E4F910F9108950F93DEDF012F1F
:20066000DCDF0F9108950F931F93FF93EF932F923F924F935F93F9E0E8E300521127001F67
:20068000111F001F111F001F111FE00FF11F48E02998000015917F9227D0289800000CE248
:2006A000FCDE289A000058E01F9317FF02C0052D01C0042D6F92F1DE6A94E9F76F90110FEB
:2006C0005A9599F71F9133947A9431F77F904A9509F7299A00005F914F913F902F90EF915F
:2006E000FF911F910F9108950F93289800000AE2D4DE289A0000022DD0DE04E6CEDE289888
:2007000000000BE2CADE289A0000032D0395C5DE00E5C3DE0F9108950F9340980000CADE32
:20072000409A0000C7DEC6DEC5DEC4DEC3DE299A0000BADE299800002898000001E0ADDE68
:20074000BDDEBCDEBBDEBADEB9DE06ECA6DEB6DEB5DEB4DEB3DE09EBA0DE289A000000E0C8
:200760009CDE2898000006EB98DE289A000000E894DE04E092DE0AE890DE04E58EDE05E4CA
:200780008CDE02E58ADE03E488DE2898000003EB84DE289A000002E080DE0AE07EDE05E115
:2007A0007CDE0FE17ADE08E278DE00E376DE07E374DE0FE372DE07E470DE0CE46EDE04E544
:2007C0006CDE05E66ADE05E768DE00E866DE05E864DE2898000005EB60DE289A000001E07E
:2007E0005CDE2898000007EB58DE289A000000E054DE53DE52DE51DE50DE4FDE4EDE4DDEC1
:200800004CDE4BDE4ADE49DE48DE47DE46DE289800000DEB42DE289A000000E03EDE289871
:20082000000006E33ADE289A000008E436DE289800000DE232DE289A000000E02EDE03E0A5
:200840002CDE05E02ADE07E028DE09E026DE0BE024DE0DE022DE0FE020DE00E01EDE03E041
:200860001CDE05E01ADE07E018DE09E016DE0BE014DE0DE012DE0FE010DE00E00EDE05E09F
:200880000CDE0BE00ADE0FE008DE289800000AEB04DE289A00000FE200DE03E0FEDD289820
:2008A000000005E2FADD289A000001E6F6DD289800000EEBF2DD289A000008E5EEDD28983C
:2008C00000000AE3EADD289A000002E0E6DD2898000001E2E2DD03E0E0DDF0DDEFDDEEDD97
:2008E000EDDD01E1DADDEADDE9DD09E2D6DD299A00000F9108950F931F932F923F922998C3
:2009000000000027202E302EEFDE289800000CE2C4DD289A0000042D10E51F9315E6BDDDB9
:200920001A95E9F71F911A95C1F7299A00003F902F901F910F9108950000000000000000D3
:20094000183C3C181800180066662400000000006C6CFE6CFE6C6C00183E603C067C18002B
:2009600000C6CC183066C600386C3876DCCC760018183000000000000C18303030180C00C9
:2009800030180C0C0C18300000663CFF3C6600000018187E18180000000000000018183022
:2009A0000000007E000000000000000000181800060C183060C08000386CC6D6C66C3800E5
:2009C0001838181818187E007CC6061C3066FE007CC6063C06C67C001C3C6CCCFE0C1E006D
:2009E000FEC0C0FC06C67C003860C0FCC6C67C00FEC60C18303030007CC6C67CC6C67C00D5
:200A00007CC6C67E060C780000181800001818000018180000181830060C1830180C060052
:200A200000007E00007E00006030180C183060007CC60C18180018007CC6DEDEDEC07800B4
:200A4000386CC6FEC6C6C600FC66667C6666FC003C66C0C0C0663C00F86C6666666CF80052
:200A6000FE6268786862FE00FE6268786860F0003C66C0C0CE663A00C6C6C6FEC6C6C60044
:200A80003C18181818183C001E0C0C0CCCCC7800E6666C786C66E600F06060606266FE0056
:200AA000C6EEFEFED6C6C600C6E6F6DECEC6C6007CC6C6C6C6C67C00FC66667C6060F00080
:200AC0007CC6C6C6C6CE7C0EFC66667C6C66E6003C6630180C663C007E7E5A1818183C00BC
:200AE000C6C6C6C6C6C67C00C6C6C6C6C66C3800C6C6C6D6D6FE6C00C6C66C386CC6C600C4
:200B00006666663C18183C00FEC68C183266FE003C30303030303C00C06030180C06020019
:200B20003C0C0C0C0C0C3C0010386CC60000000000000000000000FF30180C000000000034
:200B40000000780C7CCC7600E0607C666666DC0000007CC6C0C67C001C0C7CCCCCCC7600C7
:200B600000007CC6FEC07C003C6660F86060F000000076CCCC7C0CF8E0606C766666E600ED
:200B80001800381818183C00060006060666663CE060666C786CE6003818181818183C0099
:200BA0000000ECFED6D6D6000000DC666666660000007CC6C6C67C000000DC66667C60F097
:200BC000000076CCCC7C0C1E0000DC766060F00000007EC07C06FC003030FC3030361C0095
:200BE0000000CCCCCCCC76000000C6C6C66C38000000C6D6D6FE6C000000C66C386CC600E1
:200C00000000C6C6C67E06FC00007E4C18327E000E18187018180E001818181818181800DC
:200C20007018180E1818700076DC0000000000000010386CC6C6FE003E66C6FEC6C6C6001C
:200C40003229323132313232313231324A616E00466562004D617200417072004D617900B9
:200C60004A756E004A756C0041756700536570004F6374004E6F7600446563004D6F6E64E4
:200C80006179000054756573646179005765646E65736461790054687572736461790000A3
:200CA00046726964617900005361747572646179000053756E64617900007C0C840C8C0C64
:200CC000960CA00CA80CB20C484F55523A004D494E5554453A005345434F4E443A00444155
:200CE000593A0000444159204F46205745454B3A00004D4F4E54483A000059454152000057
:200D0000C80CCE0CD60CDE0CE40CF20CFA0C030102010101040108010501060124006000BD
:0A0D2000600000000700120099991E
:00000001FF
